{
  "contractName": "RandomVoterSelection",
  "abi": [
    {
      "inputs": [],
      "stateMutability": "nonpayable",
      "type": "constructor"
    },
    {
      "anonymous": false,
      "inputs": [
        {
          "indexed": true,
          "internalType": "address",
          "name": "from",
          "type": "address"
        },
        {
          "indexed": true,
          "internalType": "address",
          "name": "to",
          "type": "address"
        }
      ],
      "name": "OwnershipTransferRequested",
      "type": "event"
    },
    {
      "anonymous": false,
      "inputs": [
        {
          "indexed": true,
          "internalType": "address",
          "name": "from",
          "type": "address"
        },
        {
          "indexed": true,
          "internalType": "address",
          "name": "to",
          "type": "address"
        }
      ],
      "name": "OwnershipTransferred",
      "type": "event"
    },
    {
      "anonymous": false,
      "inputs": [
        {
          "indexed": false,
          "internalType": "address",
          "name": "randomlyChosen",
          "type": "address"
        }
      ],
      "name": "RandomizedAddress",
      "type": "event"
    },
    {
      "anonymous": false,
      "inputs": [
        {
          "indexed": false,
          "internalType": "address[]",
          "name": "shuffledAddresses",
          "type": "address[]"
        }
      ],
      "name": "RandomizedAddresses",
      "type": "event"
    },
    {
      "anonymous": false,
      "inputs": [
        {
          "indexed": false,
          "internalType": "uint256",
          "name": "requestId",
          "type": "uint256"
        },
        {
          "indexed": false,
          "internalType": "uint256[]",
          "name": "randomWords",
          "type": "uint256[]"
        },
        {
          "indexed": false,
          "internalType": "uint256",
          "name": "payment",
          "type": "uint256"
        }
      ],
      "name": "RequestFulfilled",
      "type": "event"
    },
    {
      "anonymous": false,
      "inputs": [
        {
          "indexed": false,
          "internalType": "uint256",
          "name": "requestId",
          "type": "uint256"
        },
        {
          "indexed": false,
          "internalType": "uint32",
          "name": "numWords",
          "type": "uint32"
        }
      ],
      "name": "RequestSent",
      "type": "event"
    },
    {
      "inputs": [],
      "name": "acceptOwnership",
      "outputs": [],
      "stateMutability": "nonpayable",
      "type": "function"
    },
    {
      "inputs": [],
      "name": "lastRequestId",
      "outputs": [
        {
          "internalType": "uint256",
          "name": "",
          "type": "uint256"
        }
      ],
      "stateMutability": "view",
      "type": "function"
    },
    {
      "inputs": [],
      "name": "owner",
      "outputs": [
        {
          "internalType": "address",
          "name": "",
          "type": "address"
        }
      ],
      "stateMutability": "view",
      "type": "function"
    },
    {
      "inputs": [
        {
          "internalType": "uint256",
          "name": "_requestId",
          "type": "uint256"
        },
        {
          "internalType": "uint256[]",
          "name": "_randomWords",
          "type": "uint256[]"
        }
      ],
      "name": "rawFulfillRandomWords",
      "outputs": [],
      "stateMutability": "nonpayable",
      "type": "function"
    },
    {
      "inputs": [
        {
          "internalType": "uint256",
          "name": "",
          "type": "uint256"
        }
      ],
      "name": "requestIds",
      "outputs": [
        {
          "internalType": "uint256",
          "name": "",
          "type": "uint256"
        }
      ],
      "stateMutability": "view",
      "type": "function"
    },
    {
      "inputs": [
        {
          "internalType": "uint256",
          "name": "",
          "type": "uint256"
        }
      ],
      "name": "s_requests",
      "outputs": [
        {
          "internalType": "uint256",
          "name": "paid",
          "type": "uint256"
        },
        {
          "internalType": "bool",
          "name": "fulfilled",
          "type": "bool"
        }
      ],
      "stateMutability": "view",
      "type": "function"
    },
    {
      "inputs": [
        {
          "internalType": "address",
          "name": "to",
          "type": "address"
        }
      ],
      "name": "transferOwnership",
      "outputs": [],
      "stateMutability": "nonpayable",
      "type": "function"
    },
    {
      "inputs": [],
      "name": "requestRandomWords",
      "outputs": [
        {
          "internalType": "uint256",
          "name": "requestId",
          "type": "uint256"
        }
      ],
      "stateMutability": "nonpayable",
      "type": "function"
    },
    {
      "inputs": [
        {
          "internalType": "uint256",
          "name": "_requestId",
          "type": "uint256"
        }
      ],
      "name": "getRequestStatus",
      "outputs": [
        {
          "internalType": "uint256",
          "name": "paid",
          "type": "uint256"
        },
        {
          "internalType": "bool",
          "name": "fulfilled",
          "type": "bool"
        },
        {
          "internalType": "uint256[]",
          "name": "randomWords",
          "type": "uint256[]"
        }
      ],
      "stateMutability": "view",
      "type": "function"
    },
    {
      "inputs": [],
      "name": "withdrawLink",
      "outputs": [],
      "stateMutability": "nonpayable",
      "type": "function"
    },
    {
      "inputs": [
        {
          "internalType": "address[]",
          "name": "_addresses",
          "type": "address[]"
        },
        {
          "internalType": "uint256",
          "name": "numberOfAddressesToReturn",
          "type": "uint256"
        }
      ],
      "name": "shuffleAddresses",
      "outputs": [
        {
          "internalType": "address[]",
          "name": "shuffledAddresses",
          "type": "address[]"
        }
      ],
      "stateMutability": "nonpayable",
      "type": "function"
    }
  ],
  "bytecode": "0x60c0604052620186a0600560006101000a81548163ffffffff021916908363ffffffff1602179055506003600560046101000a81548161ffff021916908361ffff1602179055506001600560066101000a81548163ffffffff021916908363ffffffff16021790555073779877a7b0d9e8603169ddbd7836e478b46247896005600a6101000a81548173ffffffffffffffffffffffffffffffffffffffff021916908373ffffffffffffffffffffffffffffffffffffffff16021790555073ab18414cd93297b0d12ac29e63ca20f515b3db46600660006101000a81548173ffffffffffffffffffffffffffffffffffffffff021916908373ffffffffffffffffffffffffffffffffffffffff1602179055503480156200011f57600080fd5b50338060006005600a9054906101000a900473ffffffffffffffffffffffffffffffffffffffff16600660009054906101000a900473ffffffffffffffffffffffffffffffffffffffff168173ffffffffffffffffffffffffffffffffffffffff1660808173ffffffffffffffffffffffffffffffffffffffff16815250508073ffffffffffffffffffffffffffffffffffffffff1660a08173ffffffffffffffffffffffffffffffffffffffff16815250505050600073ffffffffffffffffffffffffffffffffffffffff168273ffffffffffffffffffffffffffffffffffffffff160362000246576040517f08c379a00000000000000000000000000000000000000000000000000000000081526004016200023d9062000466565b60405180910390fd5b816000806101000a81548173ffffffffffffffffffffffffffffffffffffffff021916908373ffffffffffffffffffffffffffffffffffffffff160217905550600073ffffffffffffffffffffffffffffffffffffffff168173ffffffffffffffffffffffffffffffffffffffff1614620002cd57620002cc81620002d660201b60201c565b5b505050620004fa565b3373ffffffffffffffffffffffffffffffffffffffff168173ffffffffffffffffffffffffffffffffffffffff160362000347576040517f08c379a00000000000000000000000000000000000000000000000000000000081526004016200033e90620004d8565b60405180910390fd5b80600160006101000a81548173ffffffffffffffffffffffffffffffffffffffff021916908373ffffffffffffffffffffffffffffffffffffffff1602179055508073ffffffffffffffffffffffffffffffffffffffff1660008054906101000a900473ffffffffffffffffffffffffffffffffffffffff1673ffffffffffffffffffffffffffffffffffffffff167fed8889f560326eb138920d842192f0eb3dd22b4f139c87a2c57538e05bae127860405160405180910390a350565b600082825260208201905092915050565b7f43616e6e6f7420736574206f776e657220746f207a65726f0000000000000000600082015250565b60006200044e60188362000405565b91506200045b8262000416565b602082019050919050565b6000602082019050818103600083015262000481816200043f565b9050919050565b7f43616e6e6f74207472616e7366657220746f2073656c66000000000000000000600082015250565b6000620004c060178362000405565b9150620004cd8262000488565b602082019050919050565b60006020820190508181036000830152620004f381620004b1565b9050919050565b60805160a0516122d16200053c6000396000818161021901528181610a5a01528181610f8101528181610fa201526110c201526000610f4501526122d16000f3fe608060405234801561001057600080fd5b50600436106100a95760003560e01c80639e882717116100715780639e8827171461012c578063a168fa891461015c578063d8a4676f1461018d578063e0c86289146101bf578063f2fde38b146101dd578063fc2a88c3146101f9576100a9565b80631fe543e3146100ae57806379ba5097146100ca5780638796ba8c146100d45780638da5cb5b146101045780638dc654a214610122575b600080fd5b6100c860048036038101906100c39190611491565b610217565b005b6100d26102b3565b005b6100ee60048036038101906100e991906114ed565b610448565b6040516100fb9190611529565b60405180910390f35b61010c61046c565b6040516101199190611585565b60405180910390f35b61012a610495565b005b6101466004803603810190610141919061168f565b6105fd565b60405161015391906117a9565b60405180910390f35b610176600480360381019061017191906114ed565b6108b7565b6040516101849291906117e6565b60405180910390f35b6101a760048036038101906101a291906114ed565b6108e8565b6040516101b6939291906118cd565b60405180910390f35b6101c7610a02565b6040516101d49190611529565b60405180910390f35b6101f760048036038101906101f2919061190b565b610c3a565b005b610201610c4e565b60405161020e9190611529565b60405180910390f35b7f000000000000000000000000000000000000000000000000000000000000000073ffffffffffffffffffffffffffffffffffffffff163373ffffffffffffffffffffffffffffffffffffffff16146102a5576040517f08c379a000000000000000000000000000000000000000000000000000000000815260040161029c90611995565b60405180910390fd5b6102af8282610c54565b5050565b600160009054906101000a900473ffffffffffffffffffffffffffffffffffffffff1673ffffffffffffffffffffffffffffffffffffffff163373ffffffffffffffffffffffffffffffffffffffff1614610343576040517f08c379a000000000000000000000000000000000000000000000000000000000815260040161033a90611a01565b60405180910390fd5b60008060009054906101000a900473ffffffffffffffffffffffffffffffffffffffff169050336000806101000a81548173ffffffffffffffffffffffffffffffffffffffff021916908373ffffffffffffffffffffffffffffffffffffffff1602179055506000600160006101000a81548173ffffffffffffffffffffffffffffffffffffffff021916908373ffffffffffffffffffffffffffffffffffffffff1602179055503373ffffffffffffffffffffffffffffffffffffffff168173ffffffffffffffffffffffffffffffffffffffff167f8be0079c531659141344cd1fd0a4f28419497f9722a3daafe3b4186f6b6457e060405160405180910390a350565b6003818154811061045857600080fd5b906000526020600020016000915090505481565b60008060009054906101000a900473ffffffffffffffffffffffffffffffffffffffff16905090565b61049d610d5c565b60006005600a9054906101000a900473ffffffffffffffffffffffffffffffffffffffff1690508073ffffffffffffffffffffffffffffffffffffffff1663a9059cbb338373ffffffffffffffffffffffffffffffffffffffff166370a08231306040518263ffffffff1660e01b815260040161051a9190611585565b602060405180830381865afa158015610537573d6000803e3d6000fd5b505050506040513d601f19601f8201168201806040525081019061055b9190611a36565b6040518363ffffffff1660e01b8152600401610578929190611a63565b6020604051808303816000875af1158015610597573d6000803e3d6000fd5b505050506040513d601f19601f820116820180604052508101906105bb9190611ab8565b6105fa576040517f08c379a00000000000000000000000000000000000000000000000000000000081526004016105f190611b31565b60405180910390fd5b50565b606060008060003073ffffffffffffffffffffffffffffffffffffffff1663d8a4676f6004546040518263ffffffff1660e01b815260040161063f9190611529565b600060405180830381865afa15801561065c573d6000803e3d6000fd5b505050506040513d6000823e3d601f19601f820116820180604052508101906106859190611be8565b925092509250600183116106ce576040517f08c379a00000000000000000000000000000000000000000000000000000000081526004016106c590611ca3565b60405180910390fd5b6001151582151514610715576040517f08c379a000000000000000000000000000000000000000000000000000000000815260040161070c90611d35565b60405180910390fd5b60008160008151811061072b5761072a611d55565b5b6020026020010151905085875111610778576040517f08c379a000000000000000000000000000000000000000000000000000000000815260040161076f90611dd0565b60405180910390fd5b6107828782610dec565b965060008667ffffffffffffffff8111156107a05761079f61134e565b5b6040519080825280602002602001820160405280156107ce5781602001602082028036833780820191505090505b50905060005b878110156108a8578881815181106107ef576107ee611d55565b5b602002602001015182828151811061080a57610809611d55565b5b602002602001019073ffffffffffffffffffffffffffffffffffffffff16908173ffffffffffffffffffffffffffffffffffffffff16815250507fcb07b8b7c515626c8270641ece3bae68bcfc3ed4d35914425e638fd0477aaf0582828151811061087857610877611d55565b5b602002602001015160405161088d9190611585565b60405180910390a180806108a090611e1f565b9150506107d4565b50809550505050505092915050565b60026020528060005260406000206000915090508060000154908060010160009054906101000a900460ff16905082565b60008060606000600260008681526020019081526020016000206000015411610946576040517f08c379a000000000000000000000000000000000000000000000000000000000815260040161093d90611eb3565b60405180910390fd5b600060026000868152602001908152602001600020604051806060016040529081600082015481526020016001820160009054906101000a900460ff16151515158152602001600282018054806020026020016040519081016040528092919081815260200182805480156109da57602002820191906000526020600020905b8154815260200190600101908083116109c6575b5050505050815250509050806000015181602001518260400151935093509350509193909250565b6000610a0c610d5c565b610a4b600560009054906101000a900463ffffffff16600560049054906101000a900461ffff16600560069054906101000a900463ffffffff16610f41565b905060405180606001604052807f000000000000000000000000000000000000000000000000000000000000000073ffffffffffffffffffffffffffffffffffffffff16634306d354600560009054906101000a900463ffffffff166040518263ffffffff1660e01b8152600401610ac39190611ef2565b602060405180830381865afa158015610ae0573d6000803e3d6000fd5b505050506040513d601f19601f82011682018060405250810190610b049190611a36565b8152602001600015158152602001600067ffffffffffffffff811115610b2d57610b2c61134e565b5b604051908082528060200260200182016040528015610b5b5781602001602082028036833780820191505090505b50815250600260008381526020019081526020016000206000820151816000015560208201518160010160006101000a81548160ff0219169083151502179055506040820151816002019080519060200190610bb8929190611284565b509050506003819080600181540180825580915050600190039060005260206000200160009091909190915055806004819055507fcc58b13ad3eab50626c6a6300b1d139cd6ebb1688a7cced9461c2f7e762665ee81600560069054906101000a900463ffffffff16604051610c2f929190611f0d565b60405180910390a190565b610c42610d5c565b610c4b81611158565b50565b60045481565b6000600260008481526020019081526020016000206000015411610cad576040517f08c379a0000000000000000000000000000000000000000000000000000000008152600401610ca490611eb3565b60405180910390fd5b60016002600084815260200190815260200160002060010160006101000a81548160ff02191690831515021790555080600260008481526020019081526020016000206002019080519060200190610d06929190611284565b507f147eb1ff0c82f87f2b03e2c43f5a36488ff63ec6b730195fde4605f612f8db5182826002600086815260200190815260200160002060000154604051610d5093929190611f36565b60405180910390a15050565b60008054906101000a900473ffffffffffffffffffffffffffffffffffffffff1673ffffffffffffffffffffffffffffffffffffffff163373ffffffffffffffffffffffffffffffffffffffff1614610dea576040517f08c379a0000000000000000000000000000000000000000000000000000000008152600401610de190611fc0565b60405180910390fd5b565b60606000835190506000600182610e039190611fe0565b90505b6000811115610f36576000600182610e1e9190612014565b8583604051602001610e31929190612069565b6040516020818303038152906040528051906020012060001c610e5491906120c4565b9050858181518110610e6957610e68611d55565b5b6020026020010151868381518110610e8457610e83611d55565b5b6020026020010151878481518110610e9f57610e9e611d55565b5b60200260200101888481518110610eb957610eb8611d55565b5b602002602001018273ffffffffffffffffffffffffffffffffffffffff1673ffffffffffffffffffffffffffffffffffffffff168152508273ffffffffffffffffffffffffffffffffffffffff1673ffffffffffffffffffffffffffffffffffffffff168152505050508080610f2e906120f5565b915050610e06565b508391505092915050565b60007f000000000000000000000000000000000000000000000000000000000000000073ffffffffffffffffffffffffffffffffffffffff16634000aea07f00000000000000000000000000000000000000000000000000000000000000007f000000000000000000000000000000000000000000000000000000000000000073ffffffffffffffffffffffffffffffffffffffff16634306d354886040518263ffffffff1660e01b8152600401610ff99190611ef2565b602060405180830381865afa158015611016573d6000803e3d6000fd5b505050506040513d601f19601f8201168201806040525081019061103a9190611a36565b87878760405160200161104f9392919061213b565b6040516020818303038152906040526040518463ffffffff1660e01b815260040161107c939291906121f1565b6020604051808303816000875af115801561109b573d6000803e3d6000fd5b505050506040513d601f19601f820116820180604052508101906110bf9190611ab8565b507f000000000000000000000000000000000000000000000000000000000000000073ffffffffffffffffffffffffffffffffffffffff1663fc2a88c36040518163ffffffff1660e01b8152600401602060405180830381865afa15801561112b573d6000803e3d6000fd5b505050506040513d601f19601f8201168201806040525081019061114f9190611a36565b90509392505050565b3373ffffffffffffffffffffffffffffffffffffffff168173ffffffffffffffffffffffffffffffffffffffff16036111c6576040517f08c379a00000000000000000000000000000000000000000000000000000000081526004016111bd9061227b565b60405180910390fd5b80600160006101000a81548173ffffffffffffffffffffffffffffffffffffffff021916908373ffffffffffffffffffffffffffffffffffffffff1602179055508073ffffffffffffffffffffffffffffffffffffffff1660008054906101000a900473ffffffffffffffffffffffffffffffffffffffff1673ffffffffffffffffffffffffffffffffffffffff167fed8889f560326eb138920d842192f0eb3dd22b4f139c87a2c57538e05bae127860405160405180910390a350565b8280548282559060005260206000209081019282156112c0579160200282015b828111156112bf5782518255916020019190600101906112a4565b5b5090506112cd91906112d1565b5090565b5b808211156112ea5760008160009055506001016112d2565b5090565b6000604051905090565b600080fd5b600080fd5b6000819050919050565b61131581611302565b811461132057600080fd5b50565b6000813590506113328161130c565b92915050565b600080fd5b6000601f19601f8301169050919050565b7f4e487b7100000000000000000000000000000000000000000000000000000000600052604160045260246000fd5b6113868261133d565b810181811067ffffffffffffffff821117156113a5576113a461134e565b5b80604052505050565b60006113b86112ee565b90506113c4828261137d565b919050565b600067ffffffffffffffff8211156113e4576113e361134e565b5b602082029050602081019050919050565b600080fd5b600061140d611408846113c9565b6113ae565b905080838252602082019050602084028301858111156114305761142f6113f5565b5b835b8181101561145957806114458882611323565b845260208401935050602081019050611432565b5050509392505050565b600082601f83011261147857611477611338565b5b81356114888482602086016113fa565b91505092915050565b600080604083850312156114a8576114a76112f8565b5b60006114b685828601611323565b925050602083013567ffffffffffffffff8111156114d7576114d66112fd565b5b6114e385828601611463565b9150509250929050565b600060208284031215611503576115026112f8565b5b600061151184828501611323565b91505092915050565b61152381611302565b82525050565b600060208201905061153e600083018461151a565b92915050565b600073ffffffffffffffffffffffffffffffffffffffff82169050919050565b600061156f82611544565b9050919050565b61157f81611564565b82525050565b600060208201905061159a6000830184611576565b92915050565b600067ffffffffffffffff8211156115bb576115ba61134e565b5b602082029050602081019050919050565b6115d581611564565b81146115e057600080fd5b50565b6000813590506115f2816115cc565b92915050565b600061160b611606846115a0565b6113ae565b9050808382526020820190506020840283018581111561162e5761162d6113f5565b5b835b81811015611657578061164388826115e3565b845260208401935050602081019050611630565b5050509392505050565b600082601f83011261167657611675611338565b5b81356116868482602086016115f8565b91505092915050565b600080604083850312156116a6576116a56112f8565b5b600083013567ffffffffffffffff8111156116c4576116c36112fd565b5b6116d085828601611661565b92505060206116e185828601611323565b9150509250929050565b600081519050919050565b600082825260208201905092915050565b6000819050602082019050919050565b61172081611564565b82525050565b60006117328383611717565b60208301905092915050565b6000602082019050919050565b6000611756826116eb565b61176081856116f6565b935061176b83611707565b8060005b8381101561179c5781516117838882611726565b975061178e8361173e565b92505060018101905061176f565b5085935050505092915050565b600060208201905081810360008301526117c3818461174b565b905092915050565b60008115159050919050565b6117e0816117cb565b82525050565b60006040820190506117fb600083018561151a565b61180860208301846117d7565b9392505050565b600081519050919050565b600082825260208201905092915050565b6000819050602082019050919050565b61184481611302565b82525050565b6000611856838361183b565b60208301905092915050565b6000602082019050919050565b600061187a8261180f565b611884818561181a565b935061188f8361182b565b8060005b838110156118c05781516118a7888261184a565b97506118b283611862565b925050600181019050611893565b5085935050505092915050565b60006060820190506118e2600083018661151a565b6118ef60208301856117d7565b8181036040830152611901818461186f565b9050949350505050565b600060208284031215611921576119206112f8565b5b600061192f848285016115e3565b91505092915050565b600082825260208201905092915050565b7f6f6e6c792056524620563220777261707065722063616e2066756c66696c6c00600082015250565b600061197f601f83611938565b915061198a82611949565b602082019050919050565b600060208201905081810360008301526119ae81611972565b9050919050565b7f4d7573742062652070726f706f736564206f776e657200000000000000000000600082015250565b60006119eb601683611938565b91506119f6826119b5565b602082019050919050565b60006020820190508181036000830152611a1a816119de565b9050919050565b600081519050611a308161130c565b92915050565b600060208284031215611a4c57611a4b6112f8565b5b6000611a5a84828501611a21565b91505092915050565b6000604082019050611a786000830185611576565b611a85602083018461151a565b9392505050565b611a95816117cb565b8114611aa057600080fd5b50565b600081519050611ab281611a8c565b92915050565b600060208284031215611ace57611acd6112f8565b5b6000611adc84828501611aa3565b91505092915050565b7f556e61626c6520746f207472616e736665720000000000000000000000000000600082015250565b6000611b1b601283611938565b9150611b2682611ae5565b602082019050919050565b60006020820190508181036000830152611b4a81611b0e565b9050919050565b6000611b64611b5f846113c9565b6113ae565b90508083825260208201905060208402830185811115611b8757611b866113f5565b5b835b81811015611bb05780611b9c8882611a21565b845260208401935050602081019050611b89565b5050509392505050565b600082601f830112611bcf57611bce611338565b5b8151611bdf848260208601611b51565b91505092915050565b600080600060608486031215611c0157611c006112f8565b5b6000611c0f86828701611a21565b9350506020611c2086828701611aa3565b925050604084015167ffffffffffffffff811115611c4157611c406112fd565b5b611c4d86828701611bba565b9150509250925092565b7f73687566666c654164647265737365733a20756e706169640000000000000000600082015250565b6000611c8d601883611938565b9150611c9882611c57565b602082019050919050565b60006020820190508181036000830152611cbc81611c80565b9050919050565b7f73687566666c654164647265737365733a2072616e646f6d6e657373206e6f7460008201527f207965742066756c6c66696c6c65640000000000000000000000000000000000602082015250565b6000611d1f602f83611938565b9150611d2a82611cc3565b604082019050919050565b60006020820190508181036000830152611d4e81611d12565b9050919050565b7f4e487b7100000000000000000000000000000000000000000000000000000000600052603260045260246000fd5b7f6e6f7420656e6f7567682061646472657373657320746f2073687566666c6500600082015250565b6000611dba601f83611938565b9150611dc582611d84565b602082019050919050565b60006020820190508181036000830152611de981611dad565b9050919050565b7f4e487b7100000000000000000000000000000000000000000000000000000000600052601160045260246000fd5b6000611e2a82611302565b91507fffffffffffffffffffffffffffffffffffffffffffffffffffffffffffffffff8203611e5c57611e5b611df0565b5b600182019050919050565b7f72657175657374206e6f7420666f756e64000000000000000000000000000000600082015250565b6000611e9d601183611938565b9150611ea882611e67565b602082019050919050565b60006020820190508181036000830152611ecc81611e90565b9050919050565b600063ffffffff82169050919050565b611eec81611ed3565b82525050565b6000602082019050611f076000830184611ee3565b92915050565b6000604082019050611f22600083018561151a565b611f2f6020830184611ee3565b9392505050565b6000606082019050611f4b600083018661151a565b8181036020830152611f5d818561186f565b9050611f6c604083018461151a565b949350505050565b7f4f6e6c792063616c6c61626c65206279206f776e657200000000000000000000600082015250565b6000611faa601683611938565b9150611fb582611f74565b602082019050919050565b60006020820190508181036000830152611fd981611f9d565b9050919050565b6000611feb82611302565b9150611ff683611302565b925082820390508181111561200e5761200d611df0565b5b92915050565b600061201f82611302565b915061202a83611302565b925082820190508082111561204257612041611df0565b5b92915050565b6000819050919050565b61206361205e82611302565b612048565b82525050565b60006120758285612052565b6020820191506120858284612052565b6020820191508190509392505050565b7f4e487b7100000000000000000000000000000000000000000000000000000000600052601260045260246000fd5b60006120cf82611302565b91506120da83611302565b9250826120ea576120e9612095565b5b828206905092915050565b600061210082611302565b91506000820361211357612112611df0565b5b600182039050919050565b600061ffff82169050919050565b6121358161211e565b82525050565b60006060820190506121506000830186611ee3565b61215d602083018561212c565b61216a6040830184611ee3565b949350505050565b600081519050919050565b600082825260208201905092915050565b60005b838110156121ac578082015181840152602081019050612191565b60008484015250505050565b60006121c382612172565b6121cd818561217d565b93506121dd81856020860161218e565b6121e68161133d565b840191505092915050565b60006060820190506122066000830186611576565b612213602083018561151a565b818103604083015261222581846121b8565b9050949350505050565b7f43616e6e6f74207472616e7366657220746f2073656c66000000000000000000600082015250565b6000612265601783611938565b91506122708261222f565b602082019050919050565b6000602082019050818103600083015261229481612258565b905091905056fea26469706673582212202487dbb4374a938908ac5811e07c6ba218bdfd1706f8e2f2d6a95ac504093f3864736f6c63430008130033",
  "immutableReferences": {
    "189": [
      {
        "length": 32,
        "start": 3909
      }
    ],
    "192": [
      {
        "length": 32,
        "start": 537
      },
      {
        "length": 32,
        "start": 2650
      },
      {
        "length": 32,
        "start": 3969
      },
      {
        "length": 32,
        "start": 4002
      },
      {
        "length": 32,
        "start": 4290
      }
    ]
  },
  "source": "// SPDX-License-Identifier: MIT\r\n// An example of a consumer contract that directly pays for each request.\r\npragma solidity ^0.8.7;\r\n\r\nimport \"@chainlink/contracts/src/v0.8/ConfirmedOwner.sol\";\r\nimport \"@chainlink/contracts/src/v0.8/VRFV2WrapperConsumerBase.sol\";\r\n\r\n/**\r\n * Request testnet LINK and ETH here: https://faucets.chain.link/\r\n * Find information on LINK Token Contracts and get the latest ETH and LINK faucets here: https://docs.chain.link/docs/link-token-contracts/\r\n */\r\n\r\n/**\r\n * THIS IS AN EXAMPLE CONTRACT THAT USES HARDCODED VALUES FOR CLARITY.\r\n * THIS IS AN EXAMPLE CONTRACT THAT USES UN-AUDITED CODE.\r\n * DO NOT USE THIS CODE IN PRODUCTION.\r\n */\r\n\r\ncontract RandomVoterSelection is\r\n    VRFV2WrapperConsumerBase,\r\n    ConfirmedOwner\r\n{\r\n    event RequestSent(uint256 requestId, uint32 numWords);\r\n    event RequestFulfilled(\r\n        uint256 requestId,\r\n        uint256[] randomWords,\r\n        uint256 payment\r\n    );\r\n\r\n    event RandomizedAddresses(\r\n        address[] shuffledAddresses\r\n    );\r\n\r\n    event RandomizedAddress(address randomlyChosen);\r\n\r\n    struct RequestStatus {\r\n        uint256 paid; // amount paid in link\r\n        bool fulfilled; // whether the request has been successfully fulfilled\r\n        uint256[] randomWords;\r\n    }\r\n    mapping(uint256 => RequestStatus)\r\n        public s_requests; /* requestId --> requestStatus */\r\n\r\n    // past requests Id.\r\n    uint256[] public requestIds;\r\n    uint256 public lastRequestId;\r\n\r\n    // Depends on the number of requested values that you want sent to the\r\n    // fulfillRandomWords() function. Test and adjust\r\n    // this limit based on the network that you select, the size of the request,\r\n    // and the processing of the callback request in the fulfillRandomWords()\r\n    // function.\r\n    uint32 callbackGasLimit = 100000;\r\n\r\n    // The default is 3, but you can set this higher.\r\n    uint16 requestConfirmations = 3;\r\n\r\n    // For this example, retrieve 2 random values in one request.\r\n    // Cannot exceed VRFV2Wrapper.getConfig().maxNumWords.\r\n    uint32 numWords = 1;\r\n\r\n    // SEPOLIA Testnet\r\n    address linkAddress = 0x779877A7B0D9E8603169DdbD7836e478b4624789;\r\n    address wrapperAddress = 0xab18414CD93297B0d12ac29E63Ca20f515b3DB46;\r\n\r\n    // GOERLI Testnet\r\n    // address linkAddress = 0x326C977E6efc84E512bB9C30f76E30c160eD06FB;\r\n    // address wrapperAddress = 0x708701a1DfF4f478de54383E49a627eD4852C816;\r\n\r\n    // Polygon - Mumbai Testnet\r\n    // address linkAddress = 0x326C977E6efc84E512bB9C30f76E30c160eD06FB;\r\n    // address wrapperAddress = 0x99aFAf084eBA697E584501b8Ed2c0B37Dd136693;\r\n\r\n    constructor()\r\n        ConfirmedOwner(msg.sender)\r\n        VRFV2WrapperConsumerBase(linkAddress, wrapperAddress)\r\n    {}\r\n\r\n    function requestRandomWords()\r\n        external\r\n        onlyOwner\r\n        returns (uint256 requestId)\r\n    {\r\n        requestId = requestRandomness(\r\n            callbackGasLimit,\r\n            requestConfirmations,\r\n            numWords\r\n        );\r\n        s_requests[requestId] = RequestStatus({\r\n            paid: VRF_V2_WRAPPER.calculateRequestPrice(callbackGasLimit),\r\n            randomWords: new uint256[](0),\r\n            fulfilled: false\r\n        });\r\n        requestIds.push(requestId);\r\n        lastRequestId = requestId;\r\n        emit RequestSent(requestId, numWords);\r\n        return requestId;\r\n    }\r\n\r\n    function fulfillRandomWords(\r\n        uint256 _requestId,\r\n        uint256[] memory _randomWords\r\n    ) internal override {\r\n        require(s_requests[_requestId].paid > 0, \"request not found\");\r\n        s_requests[_requestId].fulfilled = true;\r\n        s_requests[_requestId].randomWords = _randomWords;\r\n        emit RequestFulfilled(\r\n            _requestId,\r\n            _randomWords,\r\n            s_requests[_requestId].paid\r\n        );\r\n    }\r\n\r\n    function getRequestStatus(\r\n        uint256 _requestId\r\n    )\r\n        external\r\n        view\r\n        returns (uint256 paid, bool fulfilled, uint256[] memory randomWords)\r\n    {\r\n        require(s_requests[_requestId].paid > 0, \"request not found\");\r\n        RequestStatus memory request = s_requests[_requestId];\r\n        return (request.paid, request.fulfilled, request.randomWords);\r\n    }\r\n\r\n    /**\r\n     * Allow withdraw of Link tokens from the contract\r\n     */\r\n    function withdrawLink() public onlyOwner {\r\n        LinkTokenInterface link = LinkTokenInterface(linkAddress);\r\n        require(\r\n            link.transfer(msg.sender, link.balanceOf(address(this))),\r\n            \"Unable to transfer\"\r\n        );\r\n    }\r\n\r\n    /**\r\n        Randomize the array based on the generated random seed\r\n    */\r\n    function randomizeArray(address[] memory array, uint256 seed) internal pure returns (address[] memory) {\r\n        uint n = array.length;\r\n        for (uint i = n - 1; i > 0; i--) {\r\n            uint j = uint(keccak256(abi.encodePacked(seed, i))) % (i + 1);\r\n            (array[i], array[j]) = (array[j], array[i]);\r\n        }\r\n        return array;\r\n    }\r\n\r\n    /**\r\n        Now that we can properly access some random word number,\r\n        utilize that to shuffle an array of Address types.\r\n        Then we take the first n of those, and those are our chosen ones.\r\n    */\r\n\r\n    function shuffleAddresses(\r\n        address[] memory _addresses,\r\n        uint256 numberOfAddressesToReturn\r\n    )\r\n        external\r\n        returns (address[] memory shuffledAddresses)\r\n    {\r\n        (uint256 paid, bool fulfilled, uint256[] memory randomWords) = this.getRequestStatus(lastRequestId);\r\n        require(paid > 1, \"shuffleAddresses: unpaid\");\r\n        require(fulfilled == true, \"shuffleAddresses: randomness not yet fullfilled\");\r\n        uint256 randomWord = randomWords[0];\r\n        require(_addresses.length > numberOfAddressesToReturn, \"not enough addresses to shuffle\");\r\n        // Get the randomized version of this array\r\n        _addresses = randomizeArray(_addresses, randomWord);\r\n        // Now take a subarray and return that\r\n        address[] memory returnAddresses = new address[](numberOfAddressesToReturn);\r\n        for (uint i = 0; i < numberOfAddressesToReturn; i++) {\r\n            returnAddresses[i] = _addresses[i];\r\n            emit RandomizedAddress(returnAddresses[i]);\r\n        }\r\n        // emit RandomizedAddresses(returnAddresses); \r\n        // https://sepolia.etherscan.io/tx/0xdd37a013a1843d76f1be90c97e95657f86953d65ea395d4653fad2200d70ac90\r\n        return returnAddresses;\r\n    }\r\n}",
  "sourcePath": "C:\\Users\\Melissa\\Documents\\DAOs\\daomocracy\\contracts\\NewContract.sol",
  "compiler": {
    "name": "solc",
    "version": "0.8.19+commit.7dd6d404.Emscripten.clang"
  },
  "schemaVersion": "3.4.13",
  "updatedAt": "2023-04-02T11:12:31.363Z",
  "devdoc": {
    "kind": "dev",
    "methods": {},
    "version": 1
  },
  "userdoc": {
    "kind": "user",
    "methods": {
      "acceptOwnership()": {
        "notice": "Allows an ownership transfer to be completed by the recipient."
      },
      "owner()": {
        "notice": "Get the current owner"
      },
      "shuffleAddresses(address[],uint256)": {
        "notice": "Now that we can properly access some random word number, utilize that to shuffle an array of Address types. Then we take the first n of those, and those are our chosen ones."
      },
      "transferOwnership(address)": {
        "notice": "Allows an owner to begin transferring ownership to a new address, pending."
      },
      "withdrawLink()": {
        "notice": "Allow withdraw of Link tokens from the contract"
      }
    },
    "notice": "THIS IS AN EXAMPLE CONTRACT THAT USES HARDCODED VALUES FOR CLARITY. THIS IS AN EXAMPLE CONTRACT THAT USES UN-AUDITED CODE. DO NOT USE THIS CODE IN PRODUCTION.",
    "version": 1
  }
}